{
  "contractName": "health_record",
  "abi": [
    {
      "constant": false,
      "inputs": [
        {
          "name": "_problem",
          "type": "string"
        },
        {
          "name": "_medication",
          "type": "string"
        },
        {
          "name": "_allergy",
          "type": "string"
        },
        {
          "name": "_weight",
          "type": "string"
        },
        {
          "name": "_height",
          "type": "string"
        }
      ],
      "name": "create_health_record",
      "outputs": [
        {
          "name": "patient",
          "type": "address"
        }
      ],
      "payable": false,
      "stateMutability": "nonpayable",
      "type": "function"
    },
    {
      "constant": true,
      "inputs": [
        {
          "name": "_patient",
          "type": "address"
        }
      ],
      "name": "get_health_record",
      "outputs": [
        {
          "name": "_problem",
          "type": "string"
        },
        {
          "name": "_medication",
          "type": "string"
        },
        {
          "name": "_allergy",
          "type": "string"
        },
        {
          "name": "_weight",
          "type": "string"
        },
        {
          "name": "_height",
          "type": "string"
        }
      ],
      "payable": false,
      "stateMutability": "view",
      "type": "function"
    }
  ],
  "bytecode": "0x608060405234801561001057600080fd5b50610abb806100206000396000f30060806040526004361061004c576000357c0100000000000000000000000000000000000000000000000000000000900463ffffffff1680631d5afc2e146100515780632463d3d01461012c575b600080fd5b34801561005d57600080fd5b506100ea600480360381019080803590602001908201803590602001919091929391929390803590602001908201803590602001919091929391929390803590602001908201803590602001919091929391929390803590602001908201803590602001919091929391929390803590602001908201803590602001919091929391929390505050610398565b604051808273ffffffffffffffffffffffffffffffffffffffff1673ffffffffffffffffffffffffffffffffffffffff16815260200191505060405180910390f35b34801561013857600080fd5b5061016d600480360381019080803573ffffffffffffffffffffffffffffffffffffffff1690602001909291905050506105f8565b60405180806020018060200180602001806020018060200186810386528b818151815260200191508051906020019080838360005b838110156101bd5780820151818401526020810190506101a2565b50505050905090810190601f1680156101ea5780820380516001836020036101000a031916815260200191505b5086810385528a818151815260200191508051906020019080838360005b83811015610223578082015181840152602081019050610208565b50505050905090810190601f1680156102505780820380516001836020036101000a031916815260200191505b50868103845289818151815260200191508051906020019080838360005b8381101561028957808201518184015260208101905061026e565b50505050905090810190601f1680156102b65780820380516001836020036101000a031916815260200191505b50868103835288818151815260200191508051906020019080838360005b838110156102ef5780820151818401526020810190506102d4565b50505050905090810190601f16801561031c5780820380516001836020036101000a031916815260200191505b50868103825287818151815260200191508051906020019080838360005b8381101561035557808201518184015260208101905061033a565b50505050905090810190601f1680156103825780820380516001836020036101000a031916815260200191505b509a505050505050505050505060405180910390f35b60006101f48b8b9050111580156103b457506101f48989905011155b80156103c557506101f48787905011155b80156103d5575060328585905011155b80156103e5575060328383905011155b15156103f057600080fd5b33905060a0604051908101604052808c8c8080601f01602080910402602001604051908101604052809392919081815260200183838082843782019150505050505081526020018a8a8080601f016020809104026020016040519081016040528093929190818152602001838380828437820191505050505050815260200188888080601f016020809104026020016040519081016040528093929190818152602001838380828437820191505050505050815260200186868080601f016020809104026020016040519081016040528093929190818152602001838380828437820191505050505050815260200184848080601f0160208091040260200160405190810160405280939291908181526020018383808284378201915050505050508152506000808373ffffffffffffffffffffffffffffffffffffffff1673ffffffffffffffffffffffffffffffffffffffff168152602001908152602001600020600082015181600001908051906020019061056f9291906109ba565b50602082015181600101908051906020019061058c9291906109ba565b5060408201518160020190805190602001906105a99291906109ba565b5060608201518160030190805190602001906105c69291906109ba565b5060808201518160040190805190602001906105e39291906109ba565b509050508090509a9950505050505050505050565b6060806060806060610608610a3a565b6000808873ffffffffffffffffffffffffffffffffffffffff1673ffffffffffffffffffffffffffffffffffffffff16815260200190815260200160002060a06040519081016040529081600082018054600181600116156101000203166002900480601f0160208091040260200160405190810160405280929190818152602001828054600181600116156101000203166002900480156106eb5780601f106106c0576101008083540402835291602001916106eb565b820191906000526020600020905b8154815290600101906020018083116106ce57829003601f168201915b50505050508152602001600182018054600181600116156101000203166002900480601f01602080910402602001604051908101604052809291908181526020018280546001816001161561010002031660029004801561078d5780601f106107625761010080835404028352916020019161078d565b820191906000526020600020905b81548152906001019060200180831161077057829003601f168201915b50505050508152602001600282018054600181600116156101000203166002900480601f01602080910402602001604051908101604052809291908181526020018280546001816001161561010002031660029004801561082f5780601f106108045761010080835404028352916020019161082f565b820191906000526020600020905b81548152906001019060200180831161081257829003601f168201915b50505050508152602001600382018054600181600116156101000203166002900480601f0160208091040260200160405190810160405280929190818152602001828054600181600116156101000203166002900480156108d15780601f106108a6576101008083540402835291602001916108d1565b820191906000526020600020905b8154815290600101906020018083116108b457829003601f168201915b50505050508152602001600482018054600181600116156101000203166002900480601f0160208091040260200160405190810160405280929190818152602001828054600181600116156101000203166002900480156109735780601f1061094857610100808354040283529160200191610973565b820191906000526020600020905b81548152906001019060200180831161095657829003601f168201915b505050505081525050905080600001518160200151826040015183606001518460800151849450839350829250819150809050955095509550955095505091939590929450565b828054600181600116156101000203166002900490600052602060002090601f016020900481019282601f106109fb57805160ff1916838001178555610a29565b82800160010185558215610a29579182015b82811115610a28578251825591602001919060010190610a0d565b5b509050610a369190610a6a565b5090565b60a06040519081016040528060608152602001606081526020016060815260200160608152602001606081525090565b610a8c91905b80821115610a88576000816000905550600101610a70565b5090565b905600a165627a7a72305820f972c863dedd3a449db2e36205a4a11e34c07fc25143b57dbd42db4810b21b100029",
  "source": "pragma solidity ^0.4.18;\n\ncontract health_record {\n\n  struct Record {\n    string problem;\n    string medication;\n    string allergy;\n    string weight;\n    string height;\n  }\n\n  mapping (address => Record) records;\n\n  function create_health_record(string _problem, string _medication, string _allergy, string _weight, string _height) external returns (address patient) {\n\n    require((bytes(_problem).length <= 500) && (bytes(_medication).length <= 500) && (bytes(_allergy).length <= 500) && (bytes(_weight).length <= 50) && (bytes(_height).length <= 50));\n\n    patient = msg.sender;\n\n    records[patient] = Record(_problem, _medication, _allergy, _weight, _height);\n\n    return patient;\n  }\n\n\tfunction get_health_record(address _patient) view external returns (string _problem, string _medication, string _allergy, string _weight, string _height) {\n\n    Record memory pt = records[_patient];\n\n    return (pt.problem, pt.medication, pt.allergy, pt.weight, pt.height);\n  }\n}\n",
  "sourcePath": "/Users/simonnguyen/Desktop/Ethereum/health-record-app/contracts/health_record.sol",
  "compiler": {
    "name": "solc",
    "version": "0.4.24+commit.e67f0147.Emscripten.clang"
  },
  "schemaVersion": "2.0.1",
  "updatedAt": "2018-10-26T19:05:11.717Z"
}